:100000000C9472000C9490050C9469050C949A0061
:100010000C949A000C949A000C949A000C949A00F8
:100020000C949A000C949A000C949A000C949A00E8
:100030000C949A000C949A000C949A000C949A00D8
:100040000C941F050C949A000C94ED040C94C704B6
:100050000C949A000C949A000C949A000C949A00B8
:100060000C949A000C949A00005EBCE2613FDD8320
:10007000C29C7E20A3FD1F41009D23BE46DB65F888
:100080008C11AF32CA57E974000000080002010069
:100090000003040700000000000000000000000052
:1000A000250028002B0000000000240027002A0063
:1000B00000000000230026002900040404040404B6
:1000C0000404020202020202030303030303010207
:1000D00004081020408001020408102001020408D6
:1000E0001020B70511241FBECFEFD8E0DEBFCDBF73
:1000F00011E0A0E0B1E0EEE1F5E102C005900D9263
:10010000A038B107D9F722E0A0E8B1E001C01D9204
:10011000AD34B207E1F710E0C2E7D0E004C02197A8
:10012000FE010E94870AC137D107C9F70E94640601
:100130000C948D0A0C940000AF92BF92CF92DF9284
:10014000EF92FF920F931F93CF93DF936C017B018C
:100150008B01040F151FEB015E01AE18BF08C0171D
:10016000D10759F06991D601ED91FC910190F08190
:10017000E02DC6010995892B79F7C501DF91CF9153
:100180001F910F91FF90EF90DF90CF90BF90AF90B5
:100190000895FC01538D448D252F30E0842F90E08D
:1001A000821B930B541710F0CF9608950197089572
:1001B000FC01918D828D981761F0A28DAE0FBF2F3B
:1001C000B11D5D968C91928D9F5F9F73928F90E091
:1001D00008958FEF9FEF0895FC01918D828D981700
:1001E00031F0828DE80FF11D858D90E008958FEF3D
:1001F0009FEF0895FC01918D228D892F90E0805C06
:100200009F4F821B91098F73992708958BE891E086
:100210000E94FA0021E0892B09F420E0822F089542
:1002200080E090E0892B29F00E94060181110C9456
:1002300000000895FC01A48DA80FB92FB11DA35A89
:10024000BF4F2C91848D90E001968F739927848FF6
:10025000A689B7892C93A089B1898C918370806419
:100260008C93938D848D981306C00288F389E02DBA
:1002700080818F7D80830895EF92FF920F931F936B
:10028000CF93DF93EC0181E0888F9B8D8C8D981349
:100290001AC0E889F989808185FF15C09FB7F89455
:1002A000EE89FF896083E889F989808183708064A1
:1002B00080839FBF81E090E0DF91CF911F910F91EC
:1002C000FF90EF900895F62E0B8D10E00F5F1F4FFB
:1002D0000F731127E02E8C8D8E110CC00FB607FC0A
:1002E000FACFE889F989808185FFF5CFCE010E9498
:1002F0001A01F1CFEB8DEC0FFD2FF11DE35AFF4FEB
:10030000F0829FB7F8940B8FEA89FB898081806225
:10031000CFCFCF93DF93EC01888D8823B9F0AA89E2
:10032000BB89E889F9898C9185FD03C0808186FDB0
:100330000DC00FB607FCF7CF8C9185FFF2CF8081FF
:1003400085FFEDCFCE010E941A01E9CFDF91CF9159
:10035000089590E0FC01E857FF4F2491FC01E2531F
:10036000FF4F3491FC01E654FF4FE491EE23C9F0B6
:10037000222339F0233001F1A8F4213019F1223081
:1003800029F1F0E0EE0FFF1FE456FF4FA591B49165
:100390008FB7F894EC91611126C030953E233C93C1
:1003A0008FBF08952730A9F02830C9F0243049F7CD
:1003B000809180008F7D03C0809180008F77809333
:1003C0008000DFCF84B58F7784BDDBCF84B58F7D90
:1003D000FBCF8091B0008F778093B000D2CF809117
:1003E000B0008F7DF9CF3E2BDACF3FB7F8948091E4
:1003F000810190918201A0918301B091840126B581
:10040000A89B05C02F3F19F00196A11DB11D3FBF4C
:10041000BA2FA92F982F8827BC01CD01620F711D1B
:10042000811D911D42E0660F771F881F991F4A9515
:10043000D1F708958F929F92AF92BF92CF92DF92A1
:10044000EF92FF926B017C010E94F5014B015C0170
:10045000C114D104E104F104B9F00E94F501681956
:1004600079098A099B09683E73408105910580F3EB
:1004700021E0C21AD108E108F10888EE880E83E075
:10048000981EA11CB11CE4CFFF90EF90DF90CF909D
:10049000BF90AF909F908F9008950895DC0180E009
:1004A000615090F09D919827E92FEF70F0E0E859A6
:1004B000FF4F2491E92FE295EF70F0E0E858FF4FED
:1004C000E491822F8E27ECCF0895DC012C911196B8
:1004D000ED91FC91F8948181822B81839281322F5E
:1004E00030959323928387E090E00197F1F7818123
:1004F0008323818383E290E00197F1F790817894E0
:10050000EFECF0E03197F1F7922381E009F480E01D
:100510000895FC0190810180F281E02D292F209522
:1005200060FF14C0F8948281822382838181892BA9
:100530008183A3E2B0E01197F1F78281982B928337
:10054000789487ED90E00197F1F70895F89482810F
:10055000822382838181892B8183AFEFB0E0119761
:10056000F1F78281982B928378948FE090E0EBCF23
:10057000DF92EF92FF920F931F93CF93DF93EC01E3
:10058000D62EE42E08E010E0FF24F39461E08D2DD8
:100590008F2109F460E0CE010E948902FF0C015016
:1005A0001109A1F7E11010C0F894E981FA81918155
:1005B0008881809589238183E981FA81928188816C
:1005C0008095892382837894DF91CF911F910F9139
:1005D000FF90EF90DF900895EF92FF920F931F939B
:1005E000CF93DF938C017B0140E065E50E94B80268
:1005F000E70188E0E80EF11C699140E0C8010E9423
:10060000B802CE15DF05C1F7DF91CF911F910F9191
:10061000FF90EF900895FC0190810180F281E02D20
:10062000F8948181292F20958223818378943DE756
:1006300043E050E0315029F1DA011197F1F7808160
:100640008923C1F3F8948281822382838181892B5B
:1006500081837894ABE7B7E01197F1F7F894818143
:1006600082238183A3E1B1E01197F1F78081982380
:1006700081E009F080E07894E3E6F6E03197F1F765
:10068000089580E008956F927F928F929F92AF922B
:10069000BF92CF92DF92EF92FF920F931F93CF936F
:1006A000DF938C01EB0180913102909132020E9424
:1006B0000B03882309F43FC0B80180913102909167
:1006C00032020E94EC0240E06EEB80913102909188
:1006D00032020E94B8027E016E0189E0C80ED11C70
:1006E0008E01A0903102B090320288E0882E912CC9
:1006F000712C66246394C5010E94650281117628DD
:10070000660CE1E08E1A9108B1F7F80171928F0141
:10071000CE16DF0631F780913102909132020E94AD
:100720000B03813041F4F70181917F01811105C0F4
:10073000E017F107C1F790E008C068E0CE010E9421
:100740004E0291E028852813F6CF892FDF91CF91B3
:100750001F910F91FF90EF90DF90CF90BF90AF90DF
:100760009F908F907F906F90089520910401309119
:10077000050141E4429FC001439F900D1124823046
:10078000910538F0880F991F880F991F05970197D9
:10079000F1F761E083E00E94A9018BE190E001970D
:1007A000F1F760E083E00C94A901BF92CF92DF9251
:1007B000EF92FF920F931F93CF93DF93EC01B62E2E
:1007C000C72E8D85811105C0CE010E940B038111BA
:1007D0000EC01B861D861C8680E0DF91CF911F9185
:1007E0000F91FF90EF90DF90CF90BF90089540E081
:1007F00060EFCE010E94B80201E0E12CD12C11E0A3
:10080000CE010E946502F82ECE010E94650291E0A1
:10081000F91218C0813099F51134D8F2DB86D11065
:1008200002C081E08D878B81882399F22396EB2D7E
:10083000FC2DCF01089629912193E817F907D9F7E4
:1008400081E0CBCFEE2DF0E0F8120FC08B851817AA
:10085000A0F4DE01AE0FBF1F13968C91802379F4B4
:10086000F12C193008F41C87D12EEC0FFD1F838169
:10087000902F9095892383830AC08113F1CFFE01C5
:10088000EE0DF11D8381802B8383FF24F3946F2D64
:10089000CE010E9489021F5F000F11F4E39401E072
:1008A00087E08E1508F0ACCFB7CFFC010190002097
:1008B000E9F73197AF01481B590BBC018BE891E078
:1008C0000C949C008F929F92AF92BF920F931F93B4
:1008D000CF93DF93CDB7DEB7A1970FB6F894DEBF05
:1008E0000FBECDBF19A2423008F44AE08E010F5D61
:1008F0001F4F842E912CB12CA12CA50194010E9494
:10090000510AE62FB901CA01EA30F4F4E05DD801DA
:10091000EE938D01232B242B252B79F790E080E09B
:10092000109719F0CD010E945504A1960FB6F894C6
:10093000DEBF0FBECDBFDF91CF911F910F91BF9052
:10094000AF909F908F900895E95CE1CFCF92DF92B6
:10095000EF92FF92CF93DF936B017C016DE28BE806
:1009600091E00E943C01EC0166277727CB016C19CE
:100970007D098E099F094AE00E9462048C0F9D1F29
:10098000DF91CF91FF90EF90DF90CF9008951F926D
:100990000F920FB60F9211242F933F934F935F93B3
:1009A0006F937F938F939F93AF93BF93EF93FF9337
:1009B0008BE891E00E941A01FF91EF91BF91AF91F6
:1009C0009F918F917F916F915F914F913F912F9167
:1009D0000F900FBE0F901F9018951F920F920FB699
:1009E0000F9211242F938F939F93EF93FF93E09196
:1009F0009B01F0919C018081E091A101F091A20105
:100A000082FD1BC090818091A4018F5F8F73209124
:100A1000A501821741F0E091A401F0E0E557FE4FF7
:100A2000958F8093A401FF91EF919F918F912F91CA
:100A30000F900FBE0F901F9018958081F4CF1F92DA
:100A40000F920FB60F9211242F933F938F939F9382
:100A5000AF93BF938091850190918601A09187010A
:100A6000B09188013091800123E0230F2D3758F594
:100A70000196A11DB11D2093800180938501909363
:100A80008601A0938701B0938801809181019091A4
:100A90008201A0918301B09184010196A11DB11D35
:100AA0008093810190938201A0938301B09384018C
:100AB000BF91AF919F918F913F912F910F900FBE5A
:100AC0000F901F90189526E8230F0296A11DB11DC7
:100AD000D2CF1F920F920FB60F9211242F933F93F4
:100AE0004F935F936F937F938F939F93AF93BF9336
:100AF000EF93FF93E0910201F09103010995FF91BB
:100B0000EF91BF91AF919F918F917F916F915F9185
:100B10004F913F912F910F900FBE0F901F901895FE
:100B20001F920F920FB60F9211242F933F934F9362
:100B30005F936F937F938F939F93AF93BF93EF9345
:100B4000FF93E0910001F09101010995FF91EF9170
:100B5000BF91AF919F918F917F916F915F914F91D5
:100B60003F912F910F900FBE0F901F901895CF932C
:100B7000DF9310928E0110928D0188EE93E0A0E039
:100B8000B0E080938F0190939001A0939101B09376
:100B9000920180E191E090938C0180938B0185EC30
:100BA00090E0909398018093970184EC90E090936B
:100BB0009A018093990180EC90E090939C0180933E
:100BC0009B0181EC90E090939E0180939D0182ECCB
:100BD00090E09093A00180939F0186EC90E0909329
:100BE000A2018093A1011092A4011092A50110927C
:100BF000A6011092A7014CED50E0FA01649188EC37
:100C000090E0FC0124912223C1F030E0220F331F39
:100C1000F901EA55FF4FA591B491F901E456FF4F50
:100C2000C591D4917FB7F8943C91262F209532231B
:100C30003C933881232328837FBFFA01449140935A
:100C40003F02FC018491E82FF0E0EE0FFF1FE0551A
:100C5000FF4F8591949190934102809340021092AE
:100C60004A0210924C0210924B02109249021092CA
:100C700048021092470210924602109245021092CA
:100C80004402109243021092420210923E021092CD
:100C90003D02109229028FE392E0909332028093FA
:100CA000310210922F02109230021092280289E035
:100CB00080932B0281E080932C0280932D028093FD
:100CC0002E02DF91CF910895CF93DF93CDB7DEB79A
:100CD00061970FB6F894DEBF0FBECDBF789484B590
:100CE000826084BD84B5816084BD85B5826085BD28
:100CF00085B5816085BD80916E00816080936E00B6
:100D000010928100809181008260809381008091A7
:100D10008100816080938100809180008160809358
:100D200080008091B10084608093B1008091B00018
:100D300081608093B00080917A00846080937A0013
:100D400080917A00826080937A0080917A0081603D
:100D500080937A0080917A00806880937A00109264
:100D6000C100E0919B01F0919C0182E08083E091C1
:100D70009701F09198011082E0919901F0919A0108
:100D80008FEC80831092A301E0919F01F091A0016C
:100D900086E08083E0919D01F0919E0180818061D9
:100DA0008083E0919D01F0919E0180818860808325
:100DB000E0919D01F0919E01808180688083E091A7
:100DC0009D01F0919E0180818F7D80838EE191E075
:100DD0000E94550483E491E00E945504E0913102A1
:100DE000F0913202138615861486128611861086BB
:100DF0001782168215821482138210922F0210928B
:100E0000300211E0BE01665F7F4F80913102909108
:100E100032020E94D503882309F475C067E0CE0131
:100E20000A960E944E0299898913ECCF80912F0275
:100E30008F5F80932F028A85883231F008F049C095
:100E4000803111F08232F1F6809130028F5F809311
:100E5000300280912802811128C080913102909146
:100E600032020E940B03BE01665F7F4F8091310208
:100E7000909132020E94EC0240E064EB80913102DA
:100E8000909132020E94B802809131029091320218
:100E90000E946502082F80913102909132020E94D7
:100EA0000B03011102C0109328028A858031E1F002
:100EB000BE016F5F7F4FCE010A960E9443038823D5
:100EC00031F08D818F33D9F058F48F31D1F080E03B
:100ED0000EC08B3309F4B8CF823409F093CFB4CF6E
:100EE0008F3521F08F3799F78CE001C08BE090911E
:100EF0002B02981708F086CF80932B0283CF8AE0CD
:100F0000F6CF89E0F4CFE1EDF0E02491EDEBF0E0F5
:100F10008491882399F090E0880F991FFC01EA558D
:100F2000FF4FA591B491FC01E456FF4F8591949138
:100F30008FB7F894EC91E22BEC938FBF85EB93E0A5
:100F400090930101809300018091690083608093F8
:100F50006900E89A00E010E080913102909132023D
:100F60000E940B0340E06CEC8091310290913202C0
:100F70000E94B8024091280264E48091310290916D
:100F800032020E94B80280912C02882391F1E091F4
:100F90002B0280912D02882309F4BDC08091280284
:100FA0008111B9C08FB7F894C0908501D0908601A7
:100FB000E0908701F09088018FBF8091310290917D
:100FC00032020E9465028130A1F02FB7F89480911F
:100FD000850190918601A0918701B09188012FBF72
:100FE0008C199D09AE09BF098E3E9240A105B1053D
:100FF00020F386E491E00E945504E0913102F091E3
:101000003202138615861486128611861086178280
:101010001682158214821382BE01665F7F4F809113
:101020003102909132020E94D50381119CC060E090
:1010300070E08EEF92EC0E940C0970938A0160932D
:101040008901072E000C880B990B97FFDDC00E94C9
:10105000A60483E491E00E94550480918901909157
:101060008A018197B4F48091040190910501863042
:1010700091054CF00197909305018093040187E559
:1010800091E00E94550468EC70E080E090E00E94DE
:101090001A028091890190918A018297B4F080911F
:1010A0000401909105018F3791054CF401969093BE
:1010B00005018093040187E691E00E94550468ECE5
:1010C00070E080E090E00E941A0287E791E00E94C1
:1010D00055046091040170910501072E000C880BE6
:1010E000990B97FF95C00E94A60483E491E00E94AB
:1010F000550464E670E080E090E00E941A02011559
:10110000110509F429CF0E940601882309F424CF90
:101110000E94000021CFE9508EEE92E0E33038F4D7
:10112000F0E0EE0FFF1FEA5FFE4F808191816C01BE
:10113000990FEE08FF0880912902882329F060E0CA
:1011400080912A020E94A901C701B6010E941A02D9
:1011500080912902882309F44CCF61E080912A0212
:101160000E94A90146CF67E0CE010A960E944E0276
:10117000998989135CCFBE016F5F7F4FCE010A96BC
:101180000E944303882309F452CF6A8170E0762FCE
:101190006627770F770F770F298148E0249F90010A
:1011A0001124262B372B8A858031E1F4688566234C
:1011B000C9F070E08F81AB01481B5109CA019695B7
:1011C000982F8827979587950E943D0ACB01809795
:1011D000B90153E0660F771F5A95E1F760789C01DB
:1011E000260F371F213854EE35070CF420CFB901F4
:1011F000330F880B990B0E94440920E030E040E057
:101200005CE30E94A80917CF4AE00E94620421CF44
:101210004AE00E94620469CF0E9413096894B111E8
:101220000C94A20908950E94870988F09F5798F0AE
:10123000B92F9927B751B0F0E1F0660F771F881FDB
:10124000991F1AF0BA95C9F714C0B13091F00E94F5
:10125000A109B1E008950C94A109672F782F882780
:10126000B85F39F0B93FCCF3869577956795B3951C
:10127000D9F73EF490958095709561957F4F8F4F8B
:101280009F4F0895E89409C097FB3EF49095809590
:10129000709561957F4F8F4F9F4F9923A9F0F92F3C
:1012A00096E9BB279395F695879577956795B795BA
:1012B000F111F8CFFAF4BB0F11F460FF1BC06F5FA0
:1012C0007F4F8F4F9F4F16C0882311F096E911C0B2
:1012D000772321F09EE8872F762F05C0662371F0D3
:1012E00096E8862F70E060E02AF09A95660F771FE7
:1012F000881FDAF7880F9695879597F9089557FD17
:101300009058440F551F59F05F3F71F04795880F73
:1013100097FB991F61F09F3F79F08795089512160A
:1013200013061406551FF2CF4695F1DF08C01616B6
:1013300017061806991FF1CF869571056105089467
:101340000895E894BB2766277727CB0197F908957E
:101350000E94BB090C942C0A0E941E0A38F00E94BD
:10136000250A20F0952311F00C94150A0C941B0A01
:1013700011240C94A2090E947F0970F3959FC1F378
:10138000950F50E0551F629FF001729FBB27F00D33
:10139000B11D639FAA27F00DB11DAA1F649F662788
:1013A000B00DA11D661F829F2227B00DA11D621FD7
:1013B000739FB00DA11D621F839FA00D611D221F91
:1013C000749F3327A00D611D231F849F600D211D75
:1013D000822F762F6A2F11249F5750409AF0F1F0F8
:1013E00088234AF0EE0FFF1FBB1F661F771F881F61
:1013F00091505040A9F79E3F510580F00C94150A7A
:101400000C94A2095F3FE4F3983ED4F38695779558
:101410006795B795F795E7959F5FC1F7FE2B880F06
:10142000911D9695879597F9089597F99F6780E89C
:1014300070E060E008959FEF80EC089500240A9426
:101440001616170618060906089500240A9412169F
:101450001306140605060895092E0394000C11F4D2
:10146000882352F0BB0F40F4BF2B11F460FF04C07F
:101470006F5F7F4F8F4F9F4F089597FB072E16F496
:10148000009407D077FD09D00E94730A07FC05D0AD
:101490003EF4909581959F4F0895709561957F4F8B
:1014A0000895A1E21A2EAA1BBB1BFD010DC0AA1FA5
:1014B000BB1FEE1FFF1FA217B307E407F50720F0BD
:1014C000A21BB30BE40BF50B661F771F881F991F38
:1014D0001A9469F760957095809590959B01AC0181
:1014E000BD01CF010895AA1BBB1B51E107C0AA1F74
:1014F000BB1FA617B70710F0A61BB70B881F991FB5
:101500005A95A9F780959095BC01CD010895EE0FED
:0E151000FF1F0590F491E02D0994F894FFCF91
:10151E004D024D0263005E00BC007701000000002A
:10152E003C019C00C9008901FA00D800EC004D4F27
:10153E004E49544F52414D454E544F204449474910
:10154E0054414C2044452054454D5045524154552C
:10155E005241000D0A0054656D70657261747572AA
:10156E00652069733A200041756D656E74616E6415
:10157E006F2E2E2E2E2E0044696D696E75696E6467
:10158E006F2E2E2E2E2E0044696D6D696E673D00F6
:00000001FF
